:0A0000000C942F000C9400000C94E7
:10000A0000000C9400000C9400000C9400000C9466
:10001A005C000C9400000C9400000C9400000C94FA
:10002A0000000C9400000C9400000C9400000C9446
:10003A0000000C9400000C9400000C9400000C9436
:10004A0000000C9400000C94000000000100050060
:10005A0054000000F894EE27ECBBF1E0FBBFEBBFC5
:10006A00E5BF8DE0A2E0BB27ED938A95E9F780E032
:10007A0094E0A0E6ED930197E9F7E6E5F0E08591D3
:10008A009591009761F0A591B59105901590BF01E2
:10009A00F00105900D920197E1F7FB01F0CFEFE532
:1000AA00EDBFE4E0EEBFC0E6D1E00C948500AA9370
:1000BA00EA93FA93EFB7EA93E52DF0E0309729F443
:1000CA00E3E1EABDE1E05E2E15C0E130A0E0FA0707
:1000DA0029F4EDE1EABDE2E05E2E0CC0E230A0E0D8
:1000EA00FA0729F4E7E2EABDE3E05E2E03C0E9E09D
:1000FA00EABD5524E991EFBFF991E991A9911895C3
:10010A00E0E2E1BBE0E0E2BBE0E4EFBDEAE0EEBD45
:10011A00E0E0EDBDECBDE7BDE6BDEBBDE9E0EABD63
:10012A00E0E0E9BDE8BDE0E1E9BF7894FFCFFFCFA9
:00000001FF
