:080000000C9434000C94000084
:100008000C9400000C9400000C9400000C94000068
:100018000C9400000C9400000C9400000C94000058
:100028000C9464000C9400000C9400000C940000E4
:100038000C9400000C9400000C9400000C94000038
:100048000C9400000C9400000C9400003F065B4FD9
:100058000000040060015400010005005800000081
:10006800F894EE27ECBBF1E0FBBFEBBFE5BFF8E18E
:10007800F1BDE1BD8DE0A2E0BB27ED938A95E9F7DC
:1000880080E094E0A0E6ED930197E9F7EAE5F0E077
:1000980085919591009761F0A591B591059015907E
:1000A800BF01F00105900D920197E1F7FB01F0CF38
:1000B800EFE5EDBFE4E0EEBFC0E6D1E00C947700D9
:1000C800EA93FA93EFB7EA93E5E05E1638F4E52D84
:1000D800F0E0E05AFE4FE081EFB95394E991EFBFA9
:1000E800F991E9911895E0E0E8BBE0EBE7BBE9EDB1
:1000F800EDB9E0E0EEB97894E6E4EFB9FFCFFFCFD1
:00000001FF
