:080000000C9437000C94000081
:100008000C9464000C9400000C9400000C94000004
:100018000C9400000C9400000C9400000C94000058
:100028000C9400000C9400000C9400000C94000048
:100038000C9400000C9400000C9400000C94000038
:100048000C9400000C9400000C9400003F065B4FD9
:10005800666D7D077F6F777C395E797100000200DD
:10006800040064000000F894EE27ECBBF1E0FBBF4D
:10007800EBBFE5BF8DE0A2E0BB27ED938A95E9F7DA
:1000880080E094E0A0E6ED930197E9F7E6E6F0E07A
:1000980085919591009761F0A591B591059015907E
:1000A800BF01F00105900D920197E1F7FB01F0CF38
:1000B800EFE5EDBFE4E0EEBFC0E6D1E00C94A700A9
:1000C8000A921A92FA926A937A938A939A93AA93C3
:1000D800BA93EA93FA93EFB7EA931A930A93A3E0D1
:1000E800B0E00E94DC00F20131962F0100E010E040
:1000F8000430E0E01E07A4F4F801E05AFE4FBF0107
:10010800E3E0F0E0E01BF10B0E94F700D2010E944F
:10011800EE00F0E0EF70DB01EC930F5F1F4FE8CFCC
:10012800EAB7E068EABF09911991E991EFBFF9913F
:10013800E991B991A9919991899179916991F990E8
:10014800199009901895EFE0E7BBE0E0E8BBEFEF06
:10015800E4BBE0E0E5BBEBB7E068EBBFE8E0E5BF98
:10016800E0E0E4BF78942197E0E0E883A881A43038
:10017800E0F4E881A8E00E94E600E8BBE881F0E04E
:10018800E05AFE4FE081F0E0EC5AFF4F049005BAC8
:10019800A3E0B0E00E94DC00E0E0E8BB84E18A95DF
:1001A800F1F7E881EF5FE883E1CF2196DCCFFFCF5D
:1001B800109639F088EB9BE00197F1F7A895119715
:1001C800C9F70895EE230E2EEA2F19F0E6950A9442
:1001D800E9F70895EE230E2EFD0121F0F695E79537
:1001E8000A94E1F70895EE0FFF1FEE0FFF1F089521
:00000001FF
