:040000000C9450000C
:100004000C9400000C9400000C9400000C9400006C
:100014000C9400000C9400000C9400000C9400005C
:100024000C9400000C9400000C9400000C9400004C
:100034000C9400000C9400000C9400000C9400003C
:100044000C9400000C9400000C9400000C9400002C
:100054002D0000320E2D4241E9262940476F6E6380
:10006400686172656E6B6F2041200025342E336603
:10007400202000002D4E414E000080C001002D4E76
:10008400414E00494E4600000400040054000200A2
:1000940060017E000100640180000000F894EE27F6
:1000A400ECBBF1E0FBBFEBBFE5BFF8E1F1BDE1BDA7
:1000B4008DE0A2E0BB27ED938A95E9F780E094E018
:1000C400A0E6ED930197E9F7ECE8F0E085919591CE
:1000D400009761F0A591B59105901590BF01F001CD
:1000E40005900D920197E1F7FB01F0CFEFE5EDBF2D
:1000F400E4E0EEBFC0E6D1E00C948000AB97EEE004
:10010400EC83EDE2ED83E2E4EE83E1E4EF83E0E00F
:10011400E887E987ECEAEA87E0E4EB870E94C00518
:10012400A885B9858A859B850E947A070E94FC0868
:10013400FE017C96FA93EA93E0E6F0E0FA93EA9300
:1001440080E00E94F8032496A0E10E948B04AFE0B3
:100154000E944004FE013C96FA93EA93EFE6F0E035
:10016400FA93EA930E94C0050E94010984E00E9468
:10017400F8032896E0E0EA93A0E00E944C04DE0134
:100184005C960E947A04A72D0E946504E0E0EA933D
:10019400A1E00E944C04DE011C960E947A04FFCF69
:1001A400FFCFBA93AA931A930A93AA81BB8112969A
:1001B4000E94E808309729F1AA81BB8114960E9415
:1001C400E8088F01309761F00230E0E01E0780F00C
:1001D400F80131978F01AA81BB811496ED93FC93AA
:1001E400AA81BB8112960E94C5053197AC81A08378
:1001F400AA81BB810E94E808FF2312F00E94C50572
:1002040006C0AA81BB81EFEFFFEFED93FC93198148
:100214000881259608950E94CB05E0E8EA83EFE380
:10022400EB830E941E09EE85FF85EF3FAFEFFA07CF
:1002340049F4E885F985FA93EA93A8E7B0E00E94C7
:10024400B904B6C0EF3FAFE7FA0749F4E885F9858A
:10025400FA93EA93A9E7B0E00E94B904A9C0AB8578
:10026400A73010F0E6E0EB871B85E12F1150E0305A
:1002740019F00E94D205F9CFEC85FD856E857F8546
:100284000E94180921F430E00E94D2052DC03B855C
:100294000E94E10509F008F40BC00E94D2050E94F7
:1002A400E10528F00E94E9050E94EE05F8CF0DC093
:1002B4000E94E10540F40E94E9050E94FA050E94AB
:1002C40001063150F5CF0E94D205EC85FD856E857F
:1002D4007F850E9406060E9401060E94E10520F027
:1002E4000E94E9050E94EE0510E0EB85E117A0F1FC
:1002F400AC81BD818E819F810E940D060E940606FD
:10030400DF01CB010E941005EC83FD836E837F83A4
:100314000E94C0050E94E9050E9418080E94070770
:100324000E2F0E9414060E941B060E942006AC8118
:10033400BD818E819F810E94CA070E94E9050E94A7
:1003440026060E940106E12F1F5FE03071F60E942D
:100354001406EEE2EC93C9CF0E942B063197AA85CE
:10036400A08330302CF43195A885B985EDE203C023
:10037400A885B985EBE2EC930E942B060E942B061C
:100384003197BF01A32FEAE00E94A208E05DDB01E0
:10039400EC930E942B063197BF01A32FEAE00E9441
:1003A400CC08E05DDB01EC93A885B985E0E0EC9333
:1003B4000E94250960960895BA93AA93EF976197CE
:1003C4000E941C0910E0FE01E85AFF4F0190F081E1
:1003D400E02DE887F987FE01EA5AFF4F0190F0818A
:1003E400E02DEE83FF83AE81BF81E0E0F0E0ED938A
:1003F400FC93DE01A45ABF4F0E94C5053197E491D6
:100404002E2FE03009F4E9C1E12FE03039F4253230
:1004140011F411E002C00E943106DEC1E130C1F4E2
:10042400253219F40E943106D6C112E0E0E0ED8BCA
:1004340000E02D3211F401E0CFC12B3219F4EBE2CC
:10044400ED8BCAC1203219F4E0E2ED8BC5C102C0C4
:10045400E23039F450E013E0203311F40068BCC1F9
:1004640002C0E33091F4203310F02A3308F007C0BF
:10047400AAE05A9F502DE22FE0535E0FADC140E039
:100484002E3211F414E0A8C10FC0E43099F42033E3
:1004940010F02A3308F008C00062AAE04A9F402DF9
:1004A400E22FE0534E0F98C12C3619F4026015E088
:1004B40093C103C0E53009F08FC1E22FE33659F44C
:1004C4000E9438060E943F060E943806A481AA931F
:1004D4000E94460680C1E53411F0E53609F403C0F4
:1004E400E63609F048C0FE017696EE87FF870E9443
:1004F4004C060E94EC080E9453060E945806AD85E3
:10050400AA2332F0AD89AB3259F0A03281F017C082
:100514000E945A060E94D4060E945306EDE2ED8B17
:1005240007FF05C0ED89EA930E94460608C0EE85E0
:10053400FF853196EE87FF873197AD89A08305FF4C
:1005440046E0263651F40E945A060E9401094A9355
:10055400AB89BC890E94270509C00E945A060E94E3
:1005640001094A932A93AC89BD8955DEFE0176962A
:100574000E945F061EC0E33739F40E9458060E94A9
:1005840067060E945F060EC0E037C1F40E94580659
:100594000E946706EE87FF87AE85BF850E94D2045E
:1005A4001E2F08600F77403011F0411708F001C08A
:1005B400142F40E0E0E0EC8B30E06DC0E43611F045
:1005C400E93611F4046002C0E537A1F4EAE0EC8BEB
:1005D40001FF08C0E0E0FAEC6AE97BE30E946C06E4
:1005E4001AE022C0E0E1F7E260E070E00E946C06ED
:1005F40015E01AC0E83511F4086003C0E83709F0C3
:10060400EAC0E0E1EC8B01FF08C0E0E0F0E060E06C
:1006140070E10E946C0618E007C0E0E0F0E160E0E1
:1006240070E00E946C0614E0403011F00F7701C0B6
:1006340041E001FF08C00E9458060E944C0614962F
:100644000E94EC080FC002FF07C00E9458060E94D7
:1006540067060E948F0806C00E9458060E9467061B
:1006640066277727EA87FB876C877D8702FF12C09E
:10067400AD85AA2342F40E945A060E9481080E9472
:100684005306EDE2ED8BED89E03019F01F5F4F5F0B
:1006940001C00B7F342F00FD14C0151710F435175B
:1006A40008F00FC007FF08C002FF04C00B7F2D89AC
:1006B400115001C020E301C020E20E9431065150D4
:1006C400ECCF141790F4006102FF06C00E9471067B
:1006D40009F0515011504150E0E3EA930E9446065C
:1006E400503009F051504150ECCF312FEC89E030BB
:1006F400B9F43030A1F003FF06C0EE85FF852591E3
:10070400EE87FF8705C0AE85BF852D91AE87BF8775
:100714000E943106503009F051503150EACF51C097
:100724000E9483060E94A7082E2F2A3030F003FF70
:1007340002C0295C01C0295A01C0205D04FD21C00A
:10074400213360F4A889B9898A899B89A130E0E0C2
:10075400BE07E0E08E07E0E09E0709F40BC04317F4
:1007640040F4531710F000FF01C010C020E207FF4F
:1007740008C020E3006102FF04C00E94710609F072
:1007840051500E943106503009F0515031500E94AE
:1007940083060E94D8080E945306EC89A889B98967
:1007A4008A899B89FF27662777270E94A7080E94CA
:1007B4006C06E889F9896A897B890E94180909F01D
:1007C400AFCF00FF08C0503031F05150E0E2EA935F
:1007D4000E944606F8CF10E00CCEAE81BF810E9485
:1007E400E8080E942309EF966F960895FF92F82E69
:1007F40026970E941E090E948C06309719F4EFEF89
:10080400FFEF23C0DE0116960E947D088D010E9431
:100814008C06EE83FF83E0E0E887E987DE011A9621
:100824000E947D080E94E808FA93EA931A930A93B7
:10083400E3EDF0E0FA93EA93DE011A96BDDD9F0141
:10084400AE81BF81E0E0EC93F9010E9425092A966C
:10085400FF900895AA93E5B3EF70AE2FE881E07F8F
:10086400EA2BE5BB8DE08A95F1F7AA9A8DE08A958B
:10087400F1F7AA988DE08A95F1F777C0AA93A88139
:10088400E9DFE881E295E883A881E4DF85E88A95D9
:10089400F1F76BC0AA93E881F0E0E05AFE4FE081E3
:1008A400A981AE0FEBDF6980988022960895A2E0BB
:1008B4000E949306ACE0E2DFA1E00E949306E0E030
:1008C4009E2E6E2E0895AA93A881AA3011F0681462
:1008D40048F0E0E0EA939394A92DDCDFA881AA30E4
:1008E40009F443C06394A89AA881C8DFA8983DC0BE
:1008F400BA93AA931A93A981BA81ED91A983BA8371
:100904001E2FE03019F0A12FDEDFF5CF18812396DA
:100914000895AA93E4B3E06FE4BBA29AA09AA19AC3
:10092400AA98A898A9988880E881E058E093620181
:10093400E881E054E0936301A4E1B0E00E94CA06B8
:100944000E9499060E9499060E949906A0E282DFFD
:1009540088EC90E00197F1F7A8E290DFA4E08EDF45
:10096400A5E88CDFA6E08ADFA2DF21960895BA937A
:10097400AA93E991F991A991B991CD0105900D92AC
:100984000020E1F7FC010895BA93AA93A991B991C3
:10099400EE27FF276D91662311F03196FBCF089562
:1009A400BA93AA93AA27BB27E991F991059000204D
:1009B40011F01196FBCFFD0108950E9406097B8179
:1009C4006A81F981E88177FB770F67FD7160972F62
:1009D4009E5781F078F0983190F4AA27BB27882796
:1009E40008948795B795A7959A95D1F7EA23FB23A1
:1009F400682305C0E8947727EE27FF2766276F77DB
:100A0400769508F4606877F9A991B99189919991DB
:100A1400EA17FB076807790797FB08950E94060900
:100A24000E94F7080E94DF040E94FC0819F40E9447
:100A3400F20809C0E6F70E94F208A0E0B0E080E8FE
:100A44009FE30E94730724960895A3D0E0E0EA830D
:100A5400EFE3EB831A930A93EB85FC85EF3FAFEF4B
:100A6400FA0731F46CD1A2E8B0E00E94B90482C064
:100A7400EF3FAFE7FA0731F462D1A3E8B0E00E9498
:100A8400B90478C0AC85AA2352F4E985FA856B854C
:100A94007C850E94D40658D15CD1EDE2EC93A88504
:100AA400A73010F0E6E0E8871885E12F1150E03018
:100AB40021F056D1B0D059D1F8CF5CD10E947A0739
:100AC40043D110E0E0E0F0E060E87FE34ED152D1A2
:100AD4000E945D0868F044D18BD047D11F5F173264
:100AE40030F02DD1A7E8B0E00E94B90443C0EFCFA5
:100AF400103021F42ED1E0E3EC931CC0E12F11500F
:100B0400E030C1F02DD187D07FD0DF01CB010E942E
:100B140010052BD12FD10E9418080E9407070E2F11
:100B240018D187D01DD18AD00E94CA072CD18CD06D
:100B34000BD1E4CFE885E030C9F00BD1EEE2EC93C1
:100B4400E885E150E887EF5F89F01DD151D0FCD0F2
:100B5400E985FA856B857C850E9407070E2FF9D0FD
:100B640068D011D16BD070D0EFD0EACFAE81BF8105
:100B7400E0E0EC93198108812D960895EC81FD81C4
:100B84006E817F810895ED91FD913196FE93EE93F0
:100B94000895BA93AA932497E0E0E883E98308953B
:100BA400AC81BD818E819F81E0E0F0E060E271E480
:100BB4000E94CA07EC83FD836E837F830895DEDF82
:100BC400AC85BD858E859F850E945D080895AC85A2
:100BD400BD858E859F850895EDECFCEC6CEC7DE382
:100BE4000E94CA07EC87FD876E877F873F5F089561
:100BF400E0E0F0E060E271E40E94CA070895EC8747
:100C0400FD876E877F870895A0E0B0E080E09FE3D2
:100C14000E947A070895EDECFCEC6CEC7DE30E94F5
:100C2400CA070895A885B9851196A887B987119729
:100C34000895E02FE05DEC93E02F0895FF276627E9
:100C440077270E94400708950E940B090E947307AA
:100C54000895E885F9853196E887F98708952A93F8
:100C6400AF81B885E985FA8509950895FE01E65AAC
:100C7400FF4F0190F081E02D08953497DE01A65ACC
:100C8400BF4FED93FC930895AF81B885E985FA854C
:100C940009950895DE01A65ABF4F0D90BC91A02D71
:100CA4000895EA87FB876C877D870895DFDFE5CFAA
:100CB400EA85FB856C857D850895EE87FF87AE8583
:100CC400BF850E94C6041E2F0895E4DF14960E9477
:100CD400E8080895E88BF98B6A8B7B8B08950B7F6A
:100CE400ED89EA93DE01A95ABF4F0D90BC91A02D66
:100CF400FE01E75AFF4F0190F081E02D0995503035
:100D04000895E889F9896A897B89AA85BB858C85D8
:100D14009D850895DE011C960E947D080E94E808C6
:100D240008950E944004A3E0B0E00C94CA06A0E336
:100D34000E942C0488EC90E00197F1F70895EE816D
:100D4400FF81FA93EA930895E987FA876B877C8792
:100D54000895AE81BF811196AE83BF831197089524
:100D6400AA81BB818C819D810895EA83FB836C8376
:100D74007D830895EA81FB816C817D81A985BA8593
:100D84008B859C850895A985BA858B859C85089556
:100D9400109639F080ED97E00197F1F7A895119737
:100DA400C9F7089530976040704009F0705808956D
:100DB400552342F4503811F4E0FF04C03196691F02
:100DC400791F6BF050E8572711F45F93CFC05F3F52
:100DD40031F0660F000C57956795752F08955F9352
:100DE40000200AF0CFC0C8C050E8192E1522880F81
:100DF400991F9527550F879550E8072E0522660FF2
:100E0400771F7527550F67950895689401C0E89476
:100E14005F93F2DF703818F07F3F08F4A7C056E103
:100E2400571BAAF4519558300EF4593030F0EFEFB7
:100E3400FFEF6FEF7FE777F91AC077275523B9F0F3
:100E4400EE0FFF1F661F771F5A95D1F710C0772743
:100E5400583028F0EF2FF62F672F5850F9CF55232D
:100E640031F076956795F795E7955A95D1F7002077
:100E74000AF445D15F910895689401C0E8943097CD
:100E840060407040B1F0002426F0772312F40094FF
:100E940036D1172E7EE1112032F07A95EE0FFF1F26
:100EA400661F111CF9CFEF2FF62F612D5F938ADF98
:100EB4005F9108954F93AF01FD01DA01AB01BC01CD
:100EC400CA01402D012C142E4F910895EA0FFB1FE7
:100ED400681F0895E095F0956095EF5FFF4F6F4FA1
:100EE40008955F9381DF903871F150E8152604C0AE
:100EF4005F937ADF903839F1703821F1572F591BFD
:100F04002BF112F4D7DFFACF583118F0AA27BB27F8
:100F14008827583028F0AB2FB82F88275850F9CF9E
:100F2400552329F08695B795A7955A95D9F7502D4D
:100F3400512572F0CBDF38F46795F795E7957395F3
:100F440013F420C0B7DF3EDF5F910895D8F7FBCFDD
:100F5400EA1BFB0B680B51F010F40094BBDF662313
:100F640092F3EE0FFF1F661F7A95CBF7EE27FF274C
:100F7400662777275F910895EFEFFFEF6FE77FEF25
:100F84005F910895EFEFFFEF6FE77FE75F910895BB
:100F94005F932ADF703851F3903841F301240894A9
:100FA400791F23F41CF300203AF3ECCF0F921F9324
:100FB4002F933F934F93112722279927689FA001CE
:100FC4008F9F302D410D591F6B9F300D411D591FAF
:100FD4008E9F27D0BF9F25D06A9F23D0BE9F1DD050
:100FE400AF9F1BD0AE9F110D291F391F491F591FD9
:100FF400E32FF42F652F522F4F913F912F911F9183
:101004000F9066232AF0550FEE1FFF1F661F02C0C4
:1010140073954BF2CDDE5F910895100D211D391F9C
:1010240002C0200D311D491F591F08955F93DCDE56
:10103400703821F411200AF49FCFA4CF903809F41A
:1010440095CF01240894970B1BF4D4F30020F3CF1D
:10105400792F1F932F933F934F9311241127222706
:1010640033274427552790E2AE17BF078607410769
:1010740030F0AE1BBF0B860B410B089401C0889463
:10108400551F221F331F111CAA1FBB1F881F441F7B
:101094009A9551F7F901612D4F913F912F911F912D
:1010A400662332F0550FEE1FFF1F661F7A9543F239
:1010B4007FDE5F91089599239AF0772342F0971782
:1010C40048F029F4AE17BF07860720F031F0989452
:1010D4008894089598940894089518948894089589
:1010E4007723C2F7971798F3A9F7EA17FB0768075E
:1010F40088F399F3ECCF0024AF0DB01D0895F0955B
:1011040060957095E195FF4F6F4F7F4F0895FE2FC7
:10111400FF0FFF0B6F2F7F2F08956F2F660F660B46
:10112400762F0895002498E0AA0F001C0E1A10F4DC
:101134000E0E01C0A1609A95B9F7EA2FA02D08956B
:1011440039D0F0DF0EF4E19508953F934F935F9308
:10115400002411244427552730E2AA0FBB1F881FFF
:10116400991F001C111C441F551F0E1A1F0A460B01
:10117400570B28F40E0E1F1E461F571F01C0A160F7
:101184003A9559F7FD01BC01D001CA015F914F9115
:101194003F910895E894A7FF02C0A1956894E7FDE4
:1011A400E195C0DFEA2F0EF4E1950895CEDFFD014D
:1011B400BC010895E894E7FF02C0E1956894A7FF95
:1011C40004C0A19500F8039400FA0895ED91FC91F0
:1011D40011970895ED91FD916D917C911397089568
:1011E400E881F9816A817B810895A881B9818A8126
:1011F4009B810895E883F9836A837B8308957A93B6
:101204006A93FA93EA9308959A938A93BA93AA9362
:101214000895182E862F612D192E972F712D1B2EB0
:10122400BF2FF12D1A2EAE2FE12D08953097604077
:10123400704008955A934A933A932A931A930A93BF
:1012440008955D814C813B812A811981088108952B
:00000001FF
