:040000000C9450000C
:100004000C9400000C9400000C9400000C9400006C
:100014000C9400000C9400000C9400000C9400005C
:100024000C9400000C9400000C9400000C9400004C
:100034000C9400000C9400000C9400000C9400003C
:100044000C9400000C9400000C9400000C9400002C
:100054002D0000330E2D4241E9262940476F6E637F
:10006400686172656E6B6F2056200025342E3366EE
:10007400202000002D4E414E000080C001002D4E76
:10008400414E00494E4600000400040054000200A2
:1000940060017E000100640180000000F894EE27F6
:1000A400ECBBF1E0FBBFEBBFE5BFF8E1F1BDE1BDA7
:1000B4008DE0A2E0BB27ED938A95E9F780E094E018
:1000C400A0E6ED930197E9F7ECE8F0E085919591CE
:1000D400009761F0A591B59105901590BF01F001CD
:1000E40005900D920197E1F7FB01F0CFEFE5EDBF2D
:1000F400E4E0EEBFC0E6D1E00C948000A3970E9438
:10010400B305ECEAEA83E0E4EB83FE017496FA9328
:10011400EA93E0E6F0E0FA93EA9380E00E94E803D1
:100124002496A0E10E947B04AFE00E943004FE010B
:100134003496FA93EA93EFE6F0E0FA93EA930E9496
:10014400B7050E94F10884E00E94E8032896E0E0E5
:10015400EA93A0E00E943C04DE0154960E946A04E3
:10016400A72D0E945504E0E0EA93A1E00E943C041C
:10017400DE0114960E946A04FFCFFFCFBA93AA93BC
:100184001A930A93AA81BB8112960E94D8083097C9
:1001940029F1AA81BB8114960E94D8088F01309757
:1001A40061F00230E0E01E0780F0F80131978F0122
:1001B400AA81BB811496ED93FC93AA81BB8112960C
:1001C4000E94BC053197AC81A083AA81BB810E94A7
:1001D400D808FF2312F00E94BC0506C0AA81BB8187
:1001E400EFEFFFEFED93FC931981088125960895B5
:1001F400BA93AA9324970E94B305E0E8EA83EFE355
:10020400EB830E940E09EE85FF85EF3FAFEFFA07FF
:1002140049F4E885F985FA93EA93A8E7B0E00E94E7
:10022400A904B6C0EF3FAFE7FA0749F4E885F985BA
:10023400FA93EA93A9E7B0E00E94A904A9C0AB85A8
:10024400A73010F0E6E0EB871B85E12F1150E0307A
:1002540019F00E94C205F9CFEC85FD856E857F8576
:100264000E94080921F430E00E94C2052DC03B859C
:100274000E94D10509F008F40BC00E94C2050E9437
:10028400D10528F00E94D9050E94DE05F8CF0DC0E3
:100294000E94D10540F40E94D9050E94EA050E94FB
:1002A400F1053150F5CF0E94C205EC85FD856E85C0
:1002B4007F850E94F6050E94F1050E94D10520F079
:1002C4000E94D9050E94DE0510E0EB85E117A0F13C
:1002D400AC81BD818E819F810E94FD050E94F6053F
:1002E400DF01CB010E940005EC83FD836E837F83D5
:1002F4000E94B7050E94D9050E9408080E94F706CB
:100304000E2F0E9404060E940B060E941006AC8168
:10031400BD818E819F810E94BA070E94D9050E94E7
:1003240016060E94F105E12F1F5FE03071F60E946E
:100334000406EEE2EC93C9CF0E941B063197AA850E
:10034400A08330302CF43195A885B985EDE203C043
:10035400A885B985EBE2EC930E941B060E941B065C
:100364003197BF01A32FEAE00E949208E05DDB0110
:10037400EC930E941B063197BF01A32FEAE00E9471
:10038400BC08E05DDB01EC93A885B985E0E0EC9363
:100394000E94150960960895BA93AA93EF976197FE
:1003A4000E940C0910E0FE01E85AFF4F0190F08111
:1003B400E02DE887F987FE01EA5AFF4F0190F081AA
:1003C400E02DEE83FF83AE81BF81E0E0F0E0ED93AA
:1003D400FC93DE01A45ABF4F0E94BC053197E491FF
:1003E4002E2FE03009F4E9C1E12FE03039F4253251
:1003F40011F411E002C00E942106DEC1E130C1F413
:10040400253219F40E942106D6C112E0E0E0ED8BFA
:1004140000E02D3211F401E0CFC12B3219F4EBE2EC
:10042400ED8BCAC1203219F4E0E2ED8BC5C102C0E4
:10043400E23039F450E013E0203311F40068BCC119
:1004440002C0E33091F4203310F02A3308F007C0DF
:10045400AAE05A9F502DE22FE0535E0FADC140E059
:100464002E3211F414E0A8C10FC0E43099F4203303
:1004740010F02A3308F008C00062AAE04A9F402D19
:10048400E22FE0534E0F98C12C3619F4026015E0A8
:1004940093C103C0E53009F08FC1E22FE33659F46C
:1004A4000E9428060E942F060E942806A481AA936F
:1004B4000E94360680C1E53411F0E53609F403C024
:1004C400E63609F048C0FE017696EE87FF870E9463
:1004D4003C060E94DC080E9443060E944806AD8543
:1004E400AA2332F0AD89AB3259F0A03281F017C0A3
:1004F4000E944A060E94C4060E944306EDE2ED8B68
:1005040007FF05C0ED89EA930E94360608C0EE8510
:10051400FF853196EE87FF873197AD89A08305FF6C
:1005240046E0263651F40E944A060E94F1084A9396
:10053400AB89BC890E94170509C00E944A060E9423
:10054400F1084A932A93AC89BD8952DEFE0176965E
:100554000E944F061EC0E33739F40E9448060E94E9
:1005640057060E944F060EC0E037C1F40E944806A9
:100574000E945706EE87FF87AE85BF850E94C2049E
:100584001E2F08600F77403011F0411708F001C0AA
:10059400142F40E0E0E0EC8B30E06DC0E43611F065
:1005A400E93611F4046002C0E537A1F4EAE0EC8B0B
:1005B40001FF08C0E0E0FAEC6AE97BE30E945C0614
:1005C4001AE022C0E0E1F7E260E070E00E945C061D
:1005D40015E01AC0E83511F4086003C0E83709F0E3
:1005E400EAC0E0E1EC8B01FF08C0E0E0F0E060E08D
:1005F40070E10E945C0618E007C0E0E0F0E160E012
:1006040070E00E945C0614E0403011F00F7701C0E6
:1006140041E001FF08C00E9448060E943C0614966F
:100624000E94DC080FC002FF07C00E9448060E9417
:1006340057060E947F0806C00E9448060E9457067B
:1006440066277727EA87FB876C877D8702FF12C0BE
:10065400AD85AA2342F40E944A060E9471080E94B2
:100664004306EDE2ED8BED89E03019F01F5F4F5F3B
:1006740001C00B7F342F00FD14C0151710F435177B
:1006840008F00FC007FF08C002FF04C00B7F2D89CC
:10069400115001C020E301C020E20E942106515004
:1006A400ECCF141790F4006102FF06C00E946106AB
:1006B40009F0515011504150E0E3EA930E9436068C
:1006C400503009F051504150ECCF312FEC89E030DB
:1006D400B9F43030A1F003FF06C0EE85FF85259103
:1006E400EE87FF8705C0AE85BF852D91AE87BF8796
:1006F4000E942106503009F051503150EACF51C0C8
:100704000E9473060E9497082E2F2A3030F003FFB0
:1007140002C0295C01C0295A01C0205D04FD21C02A
:10072400213360F4A889B9898A899B89A130E0E0E2
:10073400BE07E0E08E07E0E09E0709F40BC0431714
:1007440040F4531710F000FF01C010C020E207FF6F
:1007540008C020E3006102FF04C00E94610609F0A2
:1007640051500E942106503009F0515031500E94DE
:1007740073060E94C8080E944306EC89A889B989B7
:100784008A899B89FF27662777270E9497080E94FA
:100794005C06E889F9896A897B890E94080909F05D
:1007A400AFCF00FF08C0503031F05150E0E2EA937F
:1007B4000E943606F8CF10E00CCEAE81BF810E94B5
:1007C400D8080E941309EF966F960895FF92F82EA9
:1007D40026970E940E090E947C06309719F4EFEFC9
:1007E400FFEF23C0DE0116960E946D088D010E9462
:1007F4007C06EE83FF83E0E0E887E987DE011A9652
:100804000E946D080E94D808FA93EA931A930A93F7
:10081400E0ECF0E0FA93EA93DE011A96BDDD9F0165
:10082400AE81BF81E0E0EC93F9010E9415092A969C
:10083400FF900895AA93E5B3EF70AE2FE881E07FAF
:10084400EA2BE5BB8DE08A95F1F7AA9A8DE08A95AB
:10085400F1F7AA988DE08A95F1F777C0AA93A88159
:10086400E9DFE881E295E883A881E4DF85E88A95F9
:10087400F1F76BC0AA93E881F0E0E05AFE4FE08103
:10088400A981AE0FEBDF6980988022960895A2E0DB
:100894000E948306ACE0E2DFA1E00E948306E0E070
:1008A4009E2E6E2E0895AA93A881AA3011F0681482
:1008B40048F0E0E0EA939394A92DDCDFA881AA3004
:1008C40009F443C06394A89AA881C8DFA8983DC0DE
:1008D400BA93AA931A93A981BA81ED91A983BA8391
:1008E4001E2FE03019F0A12FDEDFF5CF18812396FB
:1008F4000895AA93E4B3E06FE4BBA29AA09AA19AE4
:10090400AA98A898A9988880E881E058E0936201A1
:10091400E881E054E0936301A4E1B0E00E94BA06E8
:100924000E9489060E9489060E948906A0E282DF4D
:1009340088EC90E00197F1F7A8E290DFA4E08EDF65
:10094400A5E88CDFA6E08ADFA2DF21960895BA939A
:10095400AA93E991F991A991B991CD0105900D92CC
:100964000020E1F7FC010895BA93AA93A991B991E3
:10097400EE27FF276D91662311F03196FBCF089582
:10098400BA93AA93AA27BB27E991F991059000206D
:1009940011F01196FBCFFD0108950E94F6087B81AA
:1009A4006A81F981E88177FB770F67FD7160972F82
:1009B4009E5781F078F0983190F4AA27BB278827B6
:1009C40008948795B795A7959A95D1F7EA23FB23C1
:1009D400682305C0E8947727EE27FF2766276F77FB
:1009E400769508F4606877F9A991B99189919991FC
:1009F400EA17FB076807790797FB08950E94F60832
:100A04000E94E7080E94CF040E94EC0819F40E9497
:100A1400E20809C0E6F70E94E208A0E0B0E080E83E
:100A24009FE30E94630724960895BA93AA93249798
:100A340098D0E0E0EA83EFE3EB831A930A93EB8523
:100A4400FC85EF3FAFEFFA0731F469D1A2E8B0E0DB
:100A54000E94A90482C0EF3FAFE7FA0731F45FD1E7
:100A6400A3E8B0E00E94A90478C0AC85AA2352F49C
:100A7400E985FA856B857C850E94C40655D159D1D8
:100A8400EDE2EC93A885A73010F0E6E0E88718853E
:100A9400E12F1150E03021F053D1ADD056D1F8CF31
:100AA40059D10E946A0740D110E0E0E0F0E060E82C
:100AB4007FE34BD14FD10E944D0868F041D188D0DB
:100AC40044D11F5F173230F02AD1A7E8B0E00E946A
:100AD400A90443C0EFCF103021F42BD1E0E3EC9311
:100AE4001CC0E12F1150E030C1F02AD184D07CD059
:100AF400DF01CB010E94000528D12CD10E940808F7
:100B04000E94F7060E2F15D184D01AD187D00E94E7
:100B1400BA0729D189D008D1E4CFE885E030C9F0FB
:100B240008D1EEE2EC93E885E150E887EF5F89F0C5
:100B34001AD14ED0F9D0E985FA856B857C850E945F
:100B4400F7060E2FF6D065D00ED168D06DD0ECD05C
:100B5400EACFAE81BF81E0E0EC93198108812D9644
:100B64000895E0E0E883E9830895EC81FD816E81D6
:100B74007F810895ED91FD913196FE93EE93089552
:100B8400AC81BD818E819F81E0E0F0E060E271E4A0
:100B94000E94BA07EC83FD836E837F830895E5DFAB
:100BA400AC85BD858E859F850E944D080895AC85D2
:100BB400BD858E859F850895EDECFCEC6CEC7DE3A2
:100BC4000E94BA07EC87FD876E877F873F5F089591
:100BD400E0E0F0E060E271E40E94BA070895EC8777
:100BE400FD876E877F870895A0E0B0E080E09FE3F3
:100BF4000E946A070895EDECFCEC6CEC7DE30E9426
:100C0400BA070895A885B9851196A887B987119759
:100C14000895E02FE05DEC93E02F0895FF27662709
:100C240077270E94300708950E94FB080E946307FB
:100C34000895E885F9853196E887F98708952A9318
:100C4400AF81B885E985FA8509950895FE01E65ACC
:100C5400FF4F0190F081E02D08953497DE01A65AEC
:100C6400BF4FED93FC930895AF81B885E985FA856C
:100C740009950895DE01A65ABF4F0D90BC91A02D91
:100C84000895EA87FB876C877D870895DFDFE5CFCA
:100C9400EA85FB856C857D850895EE87FF87AE85A3
:100CA400BF850E94B6041E2F0895E4DF14960E94A7
:100CB400D8080895E88BF98B6A8B7B8B08950B7F9A
:100CC400ED89EA93DE01A95ABF4F0D90BC91A02D86
:100CD400FE01E75AFF4F0190F081E02D0995503055
:100CE4000895E889F9896A897B89AA85BB858C85F9
:100CF4009D850895DE011C960E946D080E94D80807
:100D040008950E943004A3E0B0E00C94BA06A0E376
:100D14000E941C0488EC90E00197F1F70895EE819D
:100D2400FF81FA93EA930895E987FA876B877C87B2
:100D34000895AE81BF811196AE83BF831197089544
:100D4400AA81BB818C819D810895EA83FB836C8396
:100D54007D830895EA81FB816C817D81A985BA85B3
:100D64008B859C850895A985BA858B859C85089576
:100D7400109639F080ED97E00197F1F7A895119757
:100D8400C9F7089530976040704009F0705808958D
:100D9400552342F4503811F4E0FF04C03196691F22
:100DA400791F6BF050E8572711F45F93CFC05F3F72
:100DB40031F0660F000C57956795752F08955F9372
:100DC40000200AF0CFC0C8C050E8192E1522880FA1
:100DD400991F9527550F879550E8072E0522660F12
:100DE400771F7527550F67950895689401C0E89497
:100DF4005F93F2DF703818F07F3F08F4A7C056E124
:100E0400571BAAF4519558300EF4593030F0EFEFD7
:100E1400FFEF6FEF7FE777F91AC077275523B9F013
:100E2400EE0FFF1F661F771F5A95D1F710C0772763
:100E3400583028F0EF2FF62F672F5850F9CF55234D
:100E440031F076956795F795E7955A95D1F7002097
:100E54000AF445D15F910895689401C0E8943097ED
:100E640060407040B1F0002426F0772312F400941F
:100E740036D1172E7EE1112032F07A95EE0FFF1F46
:100E8400661F111CF9CFEF2FF62F612D5F938ADFB8
:100E94005F9108954F93AF01FD01DA01AB01BC01ED
:100EA400CA01402D012C142E4F910895EA0FFB1F07
:100EB400681F0895E095F0956095EF5FFF4F6F4FC1
:100EC40008955F9381DF903871F150E8152604C0CE
:100ED4005F937ADF903839F1703821F1572F591B1D
:100EE4002BF112F4D7DFFACF583118F0AA27BB2719
:100EF4008827583028F0AB2FB82F88275850F9CFBF
:100F0400552329F08695B795A7955A95D9F7502D6D
:100F1400512572F0CBDF38F46795F795E795739513
:100F240013F420C0B7DF3EDF5F910895D8F7FBCFFD
:100F3400EA1BFB0B680B51F010F40094BBDF662333
:100F440092F3EE0FFF1F661F7A95CBF7EE27FF276C
:100F5400662777275F910895EFEFFFEF6FE77FEF45
:100F64005F910895EFEFFFEF6FE77FE75F910895DB
:100F74005F932ADF703851F3903841F301240894C9
:100F8400791F23F41CF300203AF3ECCF0F921F9344
:100F94002F933F934F93112722279927689FA001EE
:100FA4008F9F302D410D591F6B9F300D411D591FCF
:100FB4008E9F27D0BF9F25D06A9F23D0BE9F1DD070
:100FC400AF9F1BD0AE9F110D291F391F491F591FF9
:100FD400E32FF42F652F522F4F913F912F911F91A3
:100FE4000F9066232AF0550FEE1FFF1F661F02C0E5
:100FF40073954BF2CDDE5F910895100D211D391FBD
:1010040002C0200D311D491F591F08955F93DCDE76
:10101400703821F411200AF49FCFA4CF903809F43A
:1010240095CF01240894970B1BF4D4F30020F3CF3D
:10103400792F1F932F933F934F9311241127222726
:1010440033274427552790E2AE17BF078607410789
:1010540030F0AE1BBF0B860B410B089401C0889483
:10106400551F221F331F111CAA1FBB1F881F441F9B
:101074009A9551F7F901612D4F913F912F911F914D
:10108400662332F0550FEE1FFF1F661F7A9543F259
:101094007FDE5F91089599239AF0772342F09717A2
:1010A40048F029F4AE17BF07860720F031F0989472
:1010B40088940895989408940895189488940895A9
:1010C4007723C2F7971798F3A9F7EA17FB0768077E
:1010D40088F399F3ECCF0024AF0DB01D0895F0957B
:1010E40060957095E195FF4F6F4F7F4F0895FE2FE8
:1010F400FF0FFF0B6F2F7F2F08956F2F660F660B67
:10110400762F0895002498E0AA0F001C0E1A10F4FC
:101114000E0E01C0A1609A95B9F7EA2FA02D08958B
:1011240039D0F0DF0EF4E19508953F934F935F9328
:10113400002411244427552730E2AA0FBB1F881F1F
:10114400991F001C111C441F551F0E1A1F0A460B21
:10115400570B28F40E0E1F1E461F571F01C0A16017
:101164003A9559F7FD01BC01D001CA015F914F9135
:101174003F910895E894A7FF02C0A1956894E7FD04
:10118400E195C0DFEA2F0EF4E1950895CEDFFD016D
:10119400BC010895E894E7FF02C0E1956894A7FFB5
:1011A40004C0A19500F8039400FA0895ED91FC9110
:1011B40011970895ED91FD916D917C911397089588
:1011C400E881F9816A817B810895A881B9818A8146
:1011D4009B810895E883F9836A837B8308957A93D6
:1011E4006A93FA93EA9308959A938A93BA93AA9383
:1011F4000895182E862F612D192E972F712D1B2ED1
:10120400BF2FF12D1A2EAE2FE12D08953097604097
:10121400704008955A934A933A932A931A930A93DF
:1012240008955D814C813B812A811981088108954B
:00000001FF
