:060000000C9434000C9486
:1000060061000C9400000C9400000C9400000C9409
:1000160000000C9400000C9400000C9400000C945A
:1000260000000C9400000C9400000C9400000C944A
:1000360000000C9400000C9400000C9400000C943A
:1000460000000C9400000C9400000C9400000100C9
:100056002D4E414E00494E460000010060015400FD
:100066000000F894EE27ECBBF1E0FBBFEBBFE5BF69
:100076008DE0A2E0BB27ED938A95E9F780E094E056
:10008600A0E6ED930197E9F7E0E6F0E0859195911A
:10009600009761F0A591B59105901590BF01F0010B
:1000A60005900D920197E1F7FB01F0CFEFE5EDBF6B
:1000B600E4E0EEBFC0E6D1E00C9462001895EFEFE5
:1000C600EABBE0E0EBBBE1E0E4BBE0E0E5BBEBB7BD
:1000D600E064EBBFE3E0E5BFE0E0E4BFE0E4EABFF5
:1000E600E4E0E0937500E2E0E0937600E3E05E2E64
:1000F600E4E04E2EE5E07E2EE1E06E2EA0E0B0E0DC
:10010600E8E0F0E00E94FB047894E0917500FF2798
:10011600662777270E9461030E94E404A0E0B0E00E
:1001260080E090E40E942B020E9428039E2E98BA3B
:10013600E0917500EE0FAE2FE62DEA02F0019E0E5D
:1001460098BAE62DA62DEA02F0019E0E98BAA09165
:100156007500BB27E0917600F0E00E94BD040E9486
:100166007D020E94E404A0E0B0E080E09FE30E94EC
:100176002B020E942A035F019A1898BAAAEFB0E0F0
:100186000E94CE02AAEFB0E00E94CE02FBCFFFCFC4
:100196000E94E9047B816A81F981E88177FB770F08
:1001A60067FD7160972F9E5781F078F0983190F433
:1001B600AA27BB27882708948795B795A7959A9568
:1001C600D1F7EA23FB23682305C0E8947727EE27B7
:1001D600FF2766276F77769508F4606877F9A99107
:1001E600B99189919991EA17FB076807790797FBF7
:1001F60008950E94E9040E94DA040E94CB000E943E
:10020600DF0419F40E94820205C0E6F70E9482020A
:100216000E948502249608950E94E90424971A9361
:100226000A930E948C020E9418052CF0EFEFFFEF54
:100236006FE77FEF71C00E9491020E94E404ADB7A0
:10024600BEB711971F930F930E94D8020F911F916B
:100256000E9496020E948C02E3EFF4E065E37FE3DE
:100266000E947E0440F40E949B020E949B030E940F
:100276009602015010400E9491020E9485027F93CF
:100286006F93FF93EF930E949102A0E0B0E080E8A5
:100296009FE30E949B03AF91BF918F919F910E9414
:1002A60039040E9496020E949B020E949D02A6E2C9
:1002B600B2E485E69FE30E94A402EEE4F1E164E580
:1002C60070E40E94A9020E948C020E94EB037F93B5
:1002D6006F93FF93EF930E94AE02ADE4B1E184ED1C
:1002E6009FE30E949403AF91BF918F919F910E94CB
:1002F60039047F936F93FF93EF93F8010E947D0279
:10030600A8E1B2E781E39FE30E94EB03AF91BF91BF
:100316008F919F910E949B03198108812A960895C7
:100326000E94E90428971A930A930E94B302E0E513
:10033600FCEA6EEA72EC0E947E0418F40E94B8028F
:1003460083C0EA85FB856C857D850E94140529F4AA
:10035600E0E0F0E060E87FE377C00E94B302E8E106
:10036600F2E761EB72E40E947E0409F008F405C02E
:10037600EFEFFFEF6FE77FE767C00E94B302EBE3A3
:10038600FAEA68EB7FE30E94EB03EA87FB876C8758
:100396007D870E94B3022DDF0E942A038F010E94EF
:1003A600B3020E947D020E94A902DF01CB01E0E0B8
:1003B600F0E060E07FE30E94A9020E9496020E949C
:1003C6009B020E949D02ADE6BCE48CE69DE30E9482
:1003D600EB03A6EAB3EE86EE90E40E949B030E942E
:1003E6008C020E94EB030E9496020E94AE02A8E2D3
:1003F600BDE886EA91E40E949B03EA83FB836C8353
:100406007D830E949102AA81BB818C819D810E947D
:100416009B03A3EFB4E085EB9FE30E94EB037F937E
:100426006F93FF93EF930E948C020E94AE020E948C
:100436009403AF91BF918F919F910E9439040E94BE
:10044600E404D8010E94E902198108812E960895D4
:100456000E94E90424970E94BD020E94140519F423
:100466000E94B80245C0A885B9858A859B850E94E9
:10047600180594F40E94C2020E94140529F4E0E0D3
:10048600F0E060E87FE334C0A885B9858A859B855E
:100496000E94C70245DF2CC00E94C202DE010E94F4
:1004A6002A030E94D0040E9482020E946103DF0197
:1004B600CB010E94C2020E941E0519F00E94B802DA
:1004C60017C00E94BD020E94F502DF01CB010E9407
:1004D600C70226DFE887F9876A877B87E881E170AC
:1004E60019F40E94BD0204C00E94BD020E94F502DA
:1004F6002C9608950E94B0040E94610308950E94FC
:10050600D5040895A0E0B0E080E89FE30E9494033C
:100516000895AE81BF81888599850895EE81FF8112
:10052600688579850895EE83FF83688779870895BE
:10053600F5DFEFCF0E94EB03EA83FB836C837D83B9
:1005460008950E94EB03DF01CB0108950E94EE049B
:100556000E9494030895EA81FB816C817D81089550
:10056600AA85BB858C859D850895E0E0F0E060E076
:1005760070E00895E885F9856A857B850895EC81A4
:10058600FD816E817F8108950E940F01AC81BD813E
:100596008E819F81D6CF109639F088EB9BE001972C
:1005A600F1F7A8951197C9F70895E991F99169911D
:1005B600799177FB660F771F88277E57880B7D9387
:1005C6008C937EE7769567956EF00895E991F9919B
:1005D6006991799177FB660F771F7A0F7695679504
:1005E6000EF0089530976040704009F070580895F5
:1005F600552342F4503811F4E0FF04C03196691FC8
:10060600791F6BF050E8572711F45F93CFC05F3F17
:1006160031F0660F000C57956795752F08955F9317
:1006260000200AF0CFC0C8C050E8192E1522880F46
:10063600991F9527550F879550E8072E0522660FB7
:10064600771F7527550F67950895689401C0E8943C
:100656005F93F2DF703818F07F3F08F4A7C056E1C9
:10066600571BAAF4519558300EF4593030F0EFEF7D
:10067600FFEF6FEF7FE777F91AC077275523B9F0B9
:10068600EE0FFF1F661F771F5A95D1F710C0772709
:10069600583028F0EF2FF62F672F5850F9CF5523F3
:1006A60031F076956795F795E7955A95D1F700203D
:1006B6000AF445D15F910895689401C0E894309793
:1006C60060407040B1F0002426F0772312F40094C5
:1006D60036D1172E7EE1112032F07A95EE0FFF1FEC
:1006E600661F111CF9CFEF2FF62F612D5F938ADF5E
:1006F6005F9108954F93AF01FD01DA01AB01BC0193
:10070600CA01402D012C142E4F910895EA0FFB1FAC
:10071600681F0895E095F0956095EF5FFF4F6F4F66
:1007260008955F9381DF903871F150E8152604C073
:100736005F937ADF903839F1703821F1572F591BC2
:100746002BF112F4D7DFFACF583118F0AA27BB27BE
:100756008827583028F0AB2FB82F88275850F9CF64
:10076600552329F08695B795A7955A95D9F7502D13
:10077600512572F0CBDF38F46795F795E7957395B9
:1007860013F420C0B7DF3EDF5F910895D8F7FBCFA3
:10079600EA1BFB0B680B51F010F40094BBDF6623D9
:1007A60092F3EE0FFF1F661F7A95CBF7EE27FF2712
:1007B600662777275F910895EFEFFFEF6FE77FEFEB
:1007C6005F910895EFEFFFEF6FE77FE75F91089581
:1007D6005F932ADF703851F3903841F3012408946F
:1007E600791F23F41CF300203AF3ECCF0F921F93EA
:1007F6002F933F934F93112722279927689FA00194
:100806008F9F302D410D591F6B9F300D411D591F74
:100816008E9F27D0BF9F25D06A9F23D0BE9F1DD015
:10082600AF9F1BD0AE9F110D291F391F491F591F9E
:10083600E32FF42F652F522F4F913F912F911F9148
:100846000F9066232AF0550FEE1FFF1F661F02C08A
:1008560073954BF2CDDE5F910895100D211D391F62
:1008660002C0200D311D491F591F08955F93DCDE1C
:10087600703821F411200AF49FCFA4CF903809F4E0
:1008860095CF01240894970B1BF4D4F30020F3CFE3
:10089600792F1F932F933F934F93112411272227CC
:1008A60033274427552790E2AE17BF07860741072F
:1008B60030F0AE1BBF0B860B410B089401C0889429
:1008C600551F221F331F111CAA1FBB1F881F441F41
:1008D6009A9551F7F901612D4F913F912F911F91F3
:1008E600662332F0550FEE1FFF1F661F7A9543F2FF
:1008F6007FDE5F91089599239AF0772342F0971748
:1009060048F029F4AE17BF07860720F031F0989417
:10091600889408959894089408951894889408954E
:100926007723C2F7971798F3A9F7EA17FB07680723
:1009360088F399F3ECCFF195E195F0400895F095A1
:1009460060957095E195FF4F6F4F7F4F0895FE2F8D
:10095600FF0FFF0B6F2F7F2F08956F2F660F660B0C
:10096600762F0895FA9FF02DEB9FF00DEA9FE02D6C
:10097600F10D089504D0F6DF0EF4DDDF0895E89456
:10098600F7FF02C0D8DF6894B7FF06C0A095B09500
:10099600119600F8039400FA0895ED93FD936D9374
:1009A6007C930895E881F9816A817B810895A88105
:1009B600B9818A819B810895E883F9836A837B8361
:1009C60008957A936A93FA93EA9308959A938A9389
:1009D600BA93AA930895182E862F612D192E972F54
:1009E600712D1B2EBF2FF12D1A2EAE2FE12D08953E
:1009F60007D01196EF93EF2F03D0EF91119708953B
:100A0600E19B02C0A895FCCF9FB7F894AEBBBFBBD5
:100A1600E09A8DB3E81719F0EDBBE29AE19A9FBF11
:100A26000895309760407040089500240A160B061A
:100A3600080609060895EA17FB0768077907089567
:00000001FF
