:020000000C945E
:100002002A000C9400000C9448000C9400000C94FC
:1000120000000C9400000C9450000C9400000C940E
:1000220000000C9400000C9400000C9400000C944E
:1000320000000C9400000C9400000C9400000C943E
:1000420000000C9400000C9400000C9400000C942E
:100052000000F894EE27ECBBF1E0FBBFEBBFE5BF7D
:10006200F8E1F1BDE1BD8DE0A2E0BB27ED938A95F9
:10007200E9F780E094E0A0E6ED930197E9F7EFE578
:10008200EDBFE4E0EEBFC0E6D1E00C945800EA9385
:10009200E0E0E2BFE7E0E3BFE5E0EEBD06C0EA93E1
:1000A200E0E0E3BF30D0E2B7EBBBE9911895E0E0C6
:1000B200EBBBEFEFEABBE0E0E8BBE7BBE5BBE4BBD1
:1000C200E2BBE1BBE3BFE2BFECBFEFBD1CD0E0E0AF
:1000D200E7BDE6BDEEE1EBBDE5E8EABDE0E0E9BD86
:1000E200E8BDEBB7E068EBBFECE0E5BFE0E0E4BF02
:1000F200E0E8EABFE0E1E9BFE0E8E8B9E0E0E0BF5C
:100102007894FFCFFFCFE0E0EEBDEDBDECBD0895EA
:00000001FF
