:0E0000000C942A000C9400000C9400000C9448
:10000E0000000C9400000C9400000C9400000C9462
:10001E0000000C9400000C9400000C9400000C9452
:10002E0000000C9400000C9400000C9448000C94FA
:10003E0000000C9400000C9400000C9400000C9432
:10004E0000000C940000F894EE27ECBBF1E0FBBF2F
:10005E00EBBFE5BFF8E1F1BDE1BD8DE0A2E0BB274E
:10006E00ED938A95E9F780E094E0A0E6ED93019791
:10007E00E9F7EFE5EDBFE4E0EEBFC0E6D1E00C94AA
:10008E005600EA93EFB7EA93E4B1E8BBE5B1E5BBFE
:10009E00EAB7E064EABFE991EFBFE9911895E0E0B5
:1000AE00E8BBEFEFE7BBE0E0E5BBEFE0E4BBE2E08F
:1000BE00E5BFE0E0E4BFEBE0E7B9EDEAE6B9E0B7B3
:1000CE00EF71E0BFE0B7E064E0BF7894FFCFFFCF01
:00000001FF
