:060000000C9439000C9481
:1000060000000C9400000C9400000C9400000C946A
:1000160000000C9400000C9400000C9400000C945A
:1000260000000C9400000C9400000C9400000C944A
:1000360000000C9468000C9400000C9400000C94D2
:1000460000000C9400000C9400000C9400000C942A
:1000560000000C9400000C9400000C9400000C941A
:10006600000000000100040068000000F894EE277C
:10007600EFBBF1E0F5BFE5BF8DE0A2E0BB27ED9356
:100086008A95E9F780E098E0A0E0B1E0ED9301976A
:10009600E9F7EAE6F0E085919591009761F0A59180
:1000A600B59105901590BF01F00105900D9201974D
:1000B600E1F7FB01F0CFE0E0EEBBEFEFEDBFE8E0EC
:1000C600EEBFC0E0D3E00C949100AA93EA93FA93B2
:1000D600EFB7EA93E42DF0E0309729F4E7E2E7BDC5
:1000E600E1E04E2E15C0E130A0E0FA0729F4EBE37B
:1000F600E7BDE2E04E2E0CC0E230A0E0FA0729F49C
:10010600EFE4E7BDE3E04E2E03C0E3E1E7BD4424A0
:10011600E991EFBFF991E991A9911895E0E8E0938B
:100126006100E0E0E0936100E0E4EAB9E0E0EBB909
:10013600E2E4E4BDE2E0E5BDE0E0E6BDE3E1E7BD23
:10014600E0E0E8BDE2E0E0936E007894FFCFFFCFF9
:00000001FF
