:100000000C942A000C9445000C9449000C940000B8
:100010000C9400000C9400000C9400000C94000060
:100020000C9400000C9400000C9400000C94000050
:100030000C9400000C9400000C9400000C94000040
:100040000C9400000C9400000C9400000C94000030
:100050000C940000F894EE27ECBBF1E0FBBFEBBF83
:10006000E5BF8DE0A2E0BB27ED938A95E9F780E03C
:1000700094E0A0E6ED930197E9F7EFE5EDBFE4E04A
:10008000EEBFC0E6D1E00C945700EA9343D0E9916B
:100090001895EA93EFB7EA934DB455246CB47724DE
:1000A00048BA6BBA37D0E991EFBFE9911895EFEFF5
:1000B000EABBE0E0EBBBEFEFE7BBE0E0E8BBE4BBB3
:1000C000E5BBE1BBE2BBE3BFE2BFECBFEFBDEEBD12
:1000D000EDBDECBDE7BDE6BDEBBDEABDE9BDE8BDEC
:1000E000E2BDE5BDE4BDE3BDE9BFEBB7E06CEBBF4E
:1000F000EBE0E5BFE0E0E4BFE0ECEABFE0E0EAB956
:10010000E0E8E8B9E0E0E0BFE6B9EDB9E6BF789431
:10011000FFCFFFCFE0E0EDBDECBDE5E0EEBD089523
:00000001FF
