:060000000C942A000C9490
:1000060000000C9400000C944C000C9400000C941E
:1000160000000C9400000C9400000C9445000C9415
:1000260000000C9400000C9400000C9400000C944A
:1000360000000C9400000C9400000C9400000C943A
:1000460000000C9400000C9400000C940000F8943E
:10005600EE27ECBBF1E0FBBFEBBFE5BF8DE0A2E016
:10006600BB27ED938A95E9F780E094E0A0E6ED934F
:100076000197E9F7EFE5EDBFE4E0EEBFC0E6D1E0BA
:100086000C945A00EA93E0E0EEBDEFEFEDBDECBD57
:100096000CC0EA93E0E0EEBDECB5EBBBEDB5E2BB20
:1000A600E0E0EDBDECBDE7E0EEBDE9911895EFEFC0
:1000B600EABBE0E0EBBBEFEFE1BBE0E0E2BBEFBDAC
:1000C600E7E0EEBDE0E0EDBDECBDE7BDE6BDEBBDB6
:1000D600EABDE9BDE8BDE8E0E2BDEEE0E5BDE0E091
:1000E600E4BDEFE7E3BDE4E8E9BF7894FFCFFFCFD7
:00000001FF
