:020000000C945E
:100002002A000C9400000C9400000C9400000C9444
:1000120000000C9400000C9448000C9400000C9416
:1000220000000C9400000C9400000C9400000C944E
:1000320000000C9400000C9400000C9400000C943E
:1000420000000C9400000C9400000C9400000C942E
:100052000000F894EE27ECBBF1E0FBBFEBBFE5BF7D
:10006200F8E1F1BDE1BD8DE0A2E0BB27ED938A95F9
:10007200E9F780E094E0A0E6ED930197E9F7EFE578
:10008200EDBFE4E0EEBFC0E6D1E00C945500AA93C8
:10009200EA93EFB7EA93E3B3A1E0EA27E5BBE9917C
:1000A200EFBFE991A9911895E1E0E4BBE5BBE0E27D
:1000B200E1BBE0E0E2BBE0E4EFBDEDE0EEBDE8E98C
:1000C200EBBDE6E9EABDE0E1E9BF7894FFCFFFCFFF
:00000001FF
