:020000000C945E
:100002002F000C9400000C9400000C9400000C943F
:1000120000000C945F000C9400000C9400000C94FF
:1000220000000C9400000C9400000C9400000C944E
:1000320000000C9400000C9400000C9400000C943E
:1000420000000C9400000C9400000C9400000C942E
:10005200000000000100020054000000F894EE27A6
:10006200ECBBF1E0FBBFEBBFE5BFF8E1F1BDE1BDE9
:100072008DE0A2E0BB27ED938A95E9F780E094E05A
:10008200A0E6ED930197E9F7E6E5F0E08591959119
:10009200009761F0A591B59105901590BF01F0010F
:1000A20005900D920197E1F7FB01F0CFEFE5EDBF6F
:1000B200E4E0EEBFC0E6D1E00C947700EA93EFB73C
:1000C200EA9320FC04C0E2ECEEBD68940AC0E0ECC6
:1000D200EEBDE6B5EBBBE7B5E8BBE0E0EDBDECBDE0
:1000E200E89420F8E991EFBFE9911895E0E0EBBBC5
:1000F200EFEFEABBE0E0E8BBEFEFE7BBE0E0E5BB38
:10010200E4BBE2BBE1BBEFBDE0ECEEBDE0E0EDBD88
:10011200ECBDE7BDE6BDEBBDEABDE9BDE8BDE0E291
:10012200E9BFE0E8E8B9E0E0E0BF7894FFCFFFCFB5
:00000001FF
