:040000000C942F002D
:100004000C9400000C9400000C9400000C945F000D
:100014000C9400000C9400000C9400000C9400005C
:100024000C9400000C9400000C9400000C9400004C
:100034000C9400000C9400000C9400000C9400003C
:100044000C9400000C9400000C9400000C9400002C
:1000540001000100050054000000F894EE27ECBBF9
:10006400F1E0FBBFEBBFE5BFF8E1F1BDE1BD8DE021
:10007400A2E0BB27ED938A95E9F780E094E0A0E63F
:10008400ED930197E9F7E6E5F0E085919591009706
:1000940061F0A591B59105901590BF01F00105900F
:1000A4000D920197E1F7FB01F0CFEFE5EDBFE4E03E
:1000B400EEBFC0E6D1E00C947C00EA93EFB7EA937C
:1000C400E52DE13019F4EFE3E3BD0FC0E23019F49C
:1000D400EFE1E3BD0AC0E33019F4EFE0E3BD05C08E
:1000E400E43011F4EFE7E3BD55245394E991EFBFF5
:1000F400E9911895E0E0EBBBEABBE8BBE7BBE5BBE5
:10010400E4BBE2BBE0E8E1BBE0E0E2BDECE6E5BD78
:10011400E0E0E4BDEFE7E3BDE0E0E5BFE4BFE0E439
:10012400E9BFE0E8E8B9E0E0E0BF7894FFCFFFCFB3
:00000001FF
