:060000000C9472000C9448
:1000060000000C9400000C9400000C9400000C946A
:1000160000000C9400000C9400000C9400000C945A
:1000260000000C9400000C9400000C9400000C944A
:1000360000000C9400000C9400000C9400000C943A
:1000460000000C9400000C9400000C9400004B0679
:100056009E3F0F000A00007B54455354207465727E
:100066006D696E616C206F75747075742D696E7034
:1000760075740A0D00693D2575206A3D2564206B5F
:100086003D257520663D25660A0D00496E7075741E
:100096002020696E746567657220312D36353533DB
:1000A6003520666F72204F435231412C204F435208
:1000B60031422000256400002D4E414E0000010013
:1000C6002D4E414E00494E4600000400600154008A
:1000D60006000400580001006401C4000000F89402
:1000E600EE27ECBBF1E0FBBFEBBFE5BFF8E1F1BDEE
:1000F600E1BD8DE0A2E0BB27ED938A95E9F780E0AC
:1001060094E0A0E6ED930197E9F7E0EDF0E0859144
:100116009591009761F0A591B59105901590BF0155
:10012600F00105900D920197E1F7FB01F0CFEFE5A5
:10013600EDBFE4E0EEBFC0E6D1E00C94A200E0E043
:10014600EBBBEFEFEABBE0E0E8BBEFEFE7BBE0E0DD
:10015600E2BBE0E3E1BBE2EBEFBDE9E1EEBDE0E0EF
:10016600EDBDECBDEFEFE7BDE6BDE0E0EBBDEABD02
:10017600E9BDE8BDEBB9E8E1EAB9E6E8E0BDE0E0F3
:10018600E0BDE3E3E9B9EEE5F0E00E94CB06EBE77C
:10019600F0E0FA93EA93F201662777270E94120AA3
:1001A600F3010E9498090E94120AE92DFF2766278B
:1001B60077270E94120AE0916001F0916101609137
:1001C6006201709163010E94120A80E10E9411048B
:1001D6006296E1E9F0E00E94CB06EAEBF0E0FA93E2
:1001E600EA93E4E0F0E060E070E00E94120A84E046
:1001F6000E947C052696E52DF0703F016BBC69BC1C
:100206004ABC48BCE6CFFFCF5F9BFECFECB108955A
:10021600AA935D9BFECFE881ECB921960895BA9327
:10022600AA93AA81F5DFA881B981ED91FD91319656
:10023600FE93EE93239608950E94D206E0E8EA83A1
:10024600EFE3EB830E942F0AEE85FF85EF3FAFEFCA
:10025600FA0749F4E885F985FA93EA93AEEBB0E03C
:100266000E94BC05B8C0EF3FAFE7FA0749F4E8853E
:10027600F985FA93EA93AFEBB0E00E94BC05ABC0F8
:10028600AB85A73010F0E6E0EB871B85E12F115018
:10029600E03019F00E94D906F9CFEC85FD856E8510
:1002A6007F850E94290A21F430E00E94D9062EC0DB
:1002B6003B850E94E80609F010F40C946D010E943B
:1002C600D9060E94E80628F00E94F3060E94F80666
:1002D600F8CF0DC00E94E80640F40E94F3060E9483
:1002E60004070E940B073150F5CF0E94D906EC8512
:1002F600FD856E857F850E9410070E940B070E9470
:10030600E80620F00E94F3060E94F80610E0EB854E
:10031600E117A8F1AC81BD818E819F810E941707EC
:100326000E941007DF01CB010E941306EC83FD83B8
:100336006E837F830E94F3060E9421090E941008A3
:100346000E2F0E941E070E942507FF276627772784
:100356000E944908AC81BD818E819F810E94D3088D
:100366000E94F3060E942A070E940B07E12F1F5FD7
:10037600E03069F60E941E07EEE2EC93C8CF0E94B9
:100386002F073197AA85A08330302CF43195A885A4
:10039600B985EDE203C0A885B985EBE2EC930E942E
:1003A6002F070E942F073197BF01A32FEAE00E9473
:1003B600B309E05DDB01EC930E942F073197BF0183
:1003C600A32FEAE00E94DD09E05DDB01EC93A8853E
:1003D600B985E0E0EC930E94360A60960895BA93D8
:1003E600AA93EF9761970E942D0A10E0FE01E85A42
:1003F600FF4F0190F081E02DE887F987FE01EA5A68
:10040600FF4F0190F081E02DEE83FF83AE81BF8127
:10041600E0E0F0E0ED93FC93DE01A45ABF4FED91CE
:10042600FD913196FE93EE933197E4912E2FE030B5
:1004360011F40C940804E12FE03039F4253211F45C
:1004460011E002C00E943507DFC1E130C1F4253258
:1004560019F40E943507D7C112E0E0E0ED8B00E009
:100466002D3211F401E0D0C12B3219F4EBE2ED8B01
:10047600CBC1203219F4E0E2ED8BC6C102C0E230F6
:1004860039F450E013E0203311F40068BDC102C016
:10049600E33091F4203310F02A3308F007C0AAE0C5
:1004A6005A9F502DE22FE0535E0FAEC140E02E3230
:1004B60011F414E0A9C10FC0E43099F4203310F010
:1004C6002A3308F008C00062AAE04A9F402DE22FB6
:1004D600E0534E0F99C12C3619F4026015E094C111
:1004E60004C0E53011F00C940704E22FE33659F40A
:1004F6000E943C070E9443070E943C07A481AA93DE
:100506000E944A0780C1E53411F0E53609F404C0BB
:10051600E63611F00C94D502FE017696EE87FF873B
:100526000E9450070E94FD090E9457070E945C071F
:10053600AD85AA2322F0AD89AB3249F017C00E94DF
:100546005E070E94DD070E945707EDE2ED8B07FF6D
:1005560005C0ED89EA930E944A0708C0EE85FF852B
:100566003196EE87FF873197AD89A08305FF46E078
:10057600263651F40E945E070E94120A4A93AB89FE
:10058600BC890E942A0609C00E945E070E94120AC0
:100596004A932A93AC89BD894FDEFE0176960E9466
:1005A60063071EC0E33739F40E945C070E946B079D
:1005B6000E9463070EC0E037C1F40E945C070E94E8
:1005C6006B07EE87FF87AE85BF850E94D5051E2F78
:1005D60008600F77403011F0411708F001C0142F62
:1005E60040E0E0E0EC8B30E06EC0E43611F0E93636
:1005F60011F4046002C0E537A1F4EAE0EC8B01FFD8
:1006060008C0E0E0FAEC6AE97BE30E9470071AE0B2
:1006160023C0E0E1F7E260E070E00E94700715E0B9
:100626001BC0E83511F4086004C0E83711F00C94DB
:100636000604E0E1EC8B01FF08C0E0E0F0E060E0DA
:1006460070E10E94700718E007C0E0E0F0E160E0AA
:1006560070E00E94700714E0403011F00F7701C07F
:1006660041E001FF08C00E945C070E9450071496F3
:100676000E94FD090FC002FF07C00E945C070E948E
:100686006B070E94980906C00E945C070E946B07D0
:1006960066277727EA87FB876C877D8702FF12C06C
:1006A600AD85AA2342F40E945E070E948A090E9431
:1006B6005707EDE2ED8BED89E03019F01F5F4F5FD4
:1006C60001C00B7F342F00FD14C0151710F4351729
:1006D60008F00FC007FF08C002FF04C00B7F2D897A
:1006E600115001C020E301C020E20E94350751509D
:1006F600ECCF141790F4006102FF06C00E94750744
:1007060009F0515011504150E0E3EA930E944A0724
:10071600503009F051504150ECCF312FEC89E03088
:10072600B9F43030A1F003FF06C0EE85FF852591B0
:10073600EE87FF8705C0AE85BF852D91AE87BF8743
:100746000E943507503009F051503150EACF51C060
:100756000E9487070E94B8092E2F2A3030F003FF27
:1007660002C0295C01C0295A01C0205D04FD21C0D8
:10077600213360F4A889B9898A899B89A130E0E090
:10078600BE07E0E08E07E0E09E0709F40BC04317C2
:1007960040F4531710F000FF01C010C020E207FF1D
:1007A60008C020E3006102FF04C00E94750709F03B
:1007B60051500E943507503009F0515031500E9477
:1007C60087070E94E9090E945707EC89A889B98919
:1007D6008A899B89FF27662777270E94B8090E9486
:1007E6007007E889F9896A897B890E94290A09F0D4
:1007F600AFCF00FF08C0503031F05150E0E2EA932D
:100806000E944A07F8CF10E007CEAE81BF810E9452
:10081600F9090E94340AEF966F960895FF92F82E12
:1008260026971A930A93DE0114960E9486098D0173
:10083600E0E0EC83ED83EE83EF83DE0118960E9401
:100846009007E2E1F1E0FA93EA93DE011896C7DD3C
:10085600198108812896FF900895BA93AA931A934E
:10086600A981BA81E0E0EC93AB81BC81EC911E2FAB
:10087600E03019F0E0E0EC9302C0C6DC1E2FE12F59
:10088600188125960895BA93AA9325970E942D0A52
:10089600E0E0F0E0E887F9874E2FE989FA8931969A
:1008A600E98BFA8B3197E4913E2FE03011F40C94EA
:1008B60076050E949907C1F0EDB7FEB7FA93EA9361
:1008C6004F930E949E074F913E2FE03019F00E94F1
:1008D600990709F407C00E94A4071CF4EFEFFFEF85
:1008E60004C1EACF432FFEC0353211F00C945D05EA
:1008F60050E0E989FA893591E98BFA8B303310F0AB
:100906003A3308F007C0AAE05A9F502DE32FE05370
:100916005E0FEFCF303009F4E6C0EDB7FEB7FA93BD
:10092600EA934F930E949E074F912E2FAE2F0E945F
:10093600A205E03039F00E94A4071CF4EFEFFFEFA8
:10094600D4C0EBCF203009F4C5C0422F503009F493
:100956005FEFE32FE33699F40E94A907EDB7FEB7E0
:10096600FA93EA934F930E949E074F91D801EC9316
:100976000E94A4071CF4EFEFFFEFB7C098C0E3375F
:1009860041F50E94A907E52F5150E030F1F0EDB78F
:10099600FEB7FA93EA934F930E949E074F913E2F1C
:1009A600E03019F00E94990739F00E94A4071CF460
:1009B600EFEFFFEF9AC009C01F930F930F5F1F4F12
:1009C600E32FAF91BF91EC93DECFD801E0E0EC933B
:1009D6006EC0E1E0EA87E32FE43611F0E93619F458
:1009E600E0E0EA8702C0E53711F42AE008C0E837FC
:1009F60011F420E104C0E53209F45CC074C0E0E003
:100A0600EE83EF83E52F5150E03011F40C944D0541
:100A1600EDB7FEB7FA93EA934F930E949E074F9164
:100A26003E2FE13238F40E94A4071CF4EFEFFFEFEB
:100A36005CC017C0EA85E03039F43D3219F4EFEFB7
:100A4600EA87E0CFE1E0EA87203131F4A32F0E9464
:100A5600AD05E03031F007C0A32F0E949905E030C4
:100A660011F4432F17C0313610F0375505C0313415
:100A760010F0375301C03053E22FAE81BF81F0E052
:100A86000E949D09DF01E32FF0E0EA0FFB1FEE83D2
:100A9600FF83B8CF0E94A907EA85AE81BF81F0E047
:100AA600E7FDFFEF0E949D09D801ED93FC930E949C
:100AB6002F0718C0EDB7FEB7FA93EA934F930E943B
:100AC6009E074F91E31771F00E94A4071CF4EFEF05
:100AD600FFEF0BC0E885F985309719F4EFEFFFEFCC
:100AE60004C001C0DACEE885F9850E94340A63960F
:100AF6000895FF92F82E23971A930A93DE01119612
:100B06000E9486098D01E0E0EB83EC83DE011596F9
:100B16000E949007E0E3F4E0FA93EA93DE01189668
:100B2600B2DE198108812596FF900895AA93E1E027
:100B3600F991F03310F0FA3308F0EE270895AA93EE
:100B4600E1E0F991F03229F0F93010F0FE3008F0CA
:100B5600EE270895AA93E1E0F991F05340F0FA30B8
:100B660038F0FF75F750FA3010F0F03108F0EE2744
:100B76000895BA93AA93E991F991A991B991CD01F2
:100B860005900D920020E1F7FC010895BA93AA930F
:100B9600A991B991EE27FF276D91662311F0319641
:100BA600FBCF0895BA93AA93AA27BB27E991F99197
:100BB6000590002011F01196FBCFFD0108950E94CB
:100BC600170A7B816A81F981E88177FB770F67FDD8
:100BD6007160972F9E5781F078F0983190F4AA278C
:100BE600BB27882708948795B795A7959A95D1F737
:100BF600EA23FB23682305C0E8947727EE27FF271F
:100C060066276F77769508F4606877F9A991B991A8
:100C160089919991EA17FB076807790797FB089569
:100C26000E94170A0E94080A0E94E2050E940D0A05
:100C360019F40E94030A09C0E6F70E94030AA0E01D
:100C4600B0E080E89FE30E947C0824960895A7D030
:100C5600E0E0EA83EFE3EB831A930A93EB85FC85E6
:100C6600EF3FAFEFFA0731F47CD1A6ECB0E00E947B
:100C7600BC058AC0EF3FAFE7FA0731F472D1A7ECA3
:100C8600B0E00E94BC0580C0AC85AA2352F4E98579
:100C9600FA856B857C850E94DD0768D16CD1EDE213
:100CA600EC93A885A73010F0E6E0E8871885E12FD9
:100CB6001150E03021F066D1B7D069D1F8CF6CD1B0
:100CC6000E94830853D110E0E0E0F0E060E87FE3A3
:100CD6005ED162D10E94660968F054D192D057D194
:100CE6001F5F173230F03DD1ABECB0E00E94BC057F
:100CF6004BC0EFCF103021F43ED1E0E3EC9320C09F
:100D0600E12F1150E030E1F03DD18ED086D0DF01E9
:100D1600CB010E9413063BD13FD10E9421090E94BC
:100D260010080E2F28D18ED0F0E02CD10E94980901
:100D36000E9449080E94D30838D189D017D1E0CF44
:100D4600E885E030E9F017D1EEE2EC93E885E15072
:100D5600E887EF5FA9F029D154D008D1E985FA8553
:100D66006B857C850E9410080E2F05D16BD0F0E0B4
:100D76001CD10E9498090E94490869D0F7D0E6CF95
:100D8600AE81BF81E0E0EC93198108812D9608952C
:100D9600FA93EA9380E00E94110422960895BA938A
:100DA600AA932497E0E0E883E9830895AC81BD81A6
:100DB6008E819F81E0E0F0E060E271E40E94D3085A
:100DC600EC83FD836E837F830895EC81FD816E81C4
:100DD6007F81AC85BD858E859F850E9466090895B5
:100DE600AC85BD858E859F850895EDECFCEC6CEC9D
:100DF6007DE30E94D308EC87FD876E877F873F5F80
:100E06000895E0E0F0E060E271E40E94D3080895FE
:100E1600EC87FD876E877F870895A0E0B0E080E0CD
:100E26009FE30E9483080895EDECFCEC6CEC7DE3F7
:100E36000E94D3080895A885B9851196A887B98711
:100E460011970895E02FE05DEC93E02F08950E943E
:100E56001C0A0E947C080895E885F9853196E88782
:100E6600F98708952A93AF81B885E985FA850995AA
:100E76000895FE01E65AFF4F0190F081E02D089596
:100E86003497DE01A65ABF4FED93FC930895AF81C8
:100E9600B885E985FA8509950895DE01A65ABF4FFA
:100EA6000D90BC91A02D0895EA87FB876C877D87FE
:100EB6000895DFDFE5CFEA85FB856C857D8508959E
:100EC600EE87FF87AE85BF850E94C9051E2F089550
:100ED600E4DF14960E94F9090895E88BF98B6A8B72
:100EE6007B8B08950B7FED89EA93DE01A95ABF4FEC
:100EF6000D90BC91A02DFE01E75AFF4F0190F081A5
:100F0600E02D099550300895E889F9896A897B8929
:100F1600AA85BB858C859D8508950E9486090E94B9
:100F2600F909FA93EA931A930A930895A32F0E9454
:100F3600A205E0300895AD85BE85EF85F88909954F
:100F46000895AB85BC85AC91A0300895EF85F889EE
:100F56003497EF87F88BAF85B88914960D911C915D
:100F66000895EE81FF81FA93EA930895E987FA8757
:100F76006B877C870895AE81BF811196AE83BF8350
:100F860011970895AA81BB818C819D810895EA837A
:100F9600FB836C837D830895EA81FB816C817D816F
:100FA600A985BA858B859C850895A985BA858B8583
:100FB6009C85089530976040704009F070580895F8
:100FC600552342F4503811F4E0FF04C03196691FEE
:100FD600791F6BF050E8572711F45F93CFC05F3F3E
:100FE60031F0660F000C57956795752F08955F933E
:100FF60000200AF0CFC0C8C050E8192E1522880F6D
:10100600991F9527550F879550E8072E0522660FDD
:10101600771F7527550F67950895689401C0E89462
:101026005F93F2DF703818F07F3F08F4A7C056E1EF
:10103600571BAAF4519558300EF4593030F0EFEFA3
:10104600FFEF6FEF7FE777F91AC077275523B9F0DF
:10105600EE0FFF1F661F771F5A95D1F710C077272F
:10106600583028F0EF2FF62F672F5850F9CF552319
:1010760031F076956795F795E7955A95D1F7002063
:101086000AF445D15F910895689401C0E8943097B9
:1010960060407040B1F0002426F0772312F40094EB
:1010A60036D1172E7EE1112032F07A95EE0FFF1F12
:1010B600661F111CF9CFEF2FF62F612D5F938ADF84
:1010C6005F9108954F93AF01FD01DA01AB01BC01B9
:1010D600CA01402D012C142E4F910895EA0FFB1FD3
:1010E600681F0895E095F0956095EF5FFF4F6F4F8D
:1010F60008955F9381DF903871F150E8152604C09A
:101106005F937ADF903839F1703821F1572F591BE8
:101116002BF112F4D7DFFACF583118F0AA27BB27E4
:101126008827583028F0AB2FB82F88275850F9CF8A
:10113600552329F08695B795A7955A95D9F7502D39
:10114600512572F0CBDF38F46795F795E7957395DF
:1011560013F420C0B7DF3EDF5F910895D8F7FBCFC9
:10116600EA1BFB0B680B51F010F40094BBDF6623FF
:1011760092F3EE0FFF1F661F7A95CBF7EE27FF2738
:10118600662777275F910895EFEFFFEF6FE77FEF11
:101196005F910895EFEFFFEF6FE77FE75F910895A7
:1011A6005F932ADF703851F3903841F30124089495
:1011B600791F23F41CF300203AF3ECCF0F921F9310
:1011C6002F933F934F93112722279927689FA001BA
:1011D6008F9F302D410D591F6B9F300D411D591F9B
:1011E6008E9F27D0BF9F25D06A9F23D0BE9F1DD03C
:1011F600AF9F1BD0AE9F110D291F391F491F591FC5
:10120600E32FF42F652F522F4F913F912F911F916E
:101216000F9066232AF0550FEE1FFF1F661F02C0B0
:1012260073954BF2CDDE5F910895100D211D391F88
:1012360002C0200D311D491F591F08955F93DCDE42
:10124600703821F411200AF49FCFA4CF903809F406
:1012560095CF01240894970B1BF4D4F30020F3CF09
:10126600792F1F932F933F934F93112411272227F2
:1012760033274427552790E2AE17BF078607410755
:1012860030F0AE1BBF0B860B410B089401C088944F
:10129600551F221F331F111CAA1FBB1F881F441F67
:1012A6009A9551F7F901612D4F913F912F911F9119
:1012B600662332F0550FEE1FFF1F661F7A9543F225
:1012C6007FDE5F91089599239AF0772342F097176E
:1012D60048F029F4AE17BF07860720F031F098943E
:1012E6008894089598940894089518948894089575
:1012F6007723C2F7971798F3A9F7EA17FB0768074A
:1013060088F399F3ECCF0024AF0DB01D0895F09546
:1013160060957095E195FF4F6F4F7F4F0895FE2FB3
:10132600FF0FFF0B6F2F7F2F08956F2F660F660B32
:10133600762F0895FA9FF02DEB9FF00DEA9FE02D92
:10134600F10D0895002498E0AA0F001C0E1A10F45F
:101356000E0E01C0A1609A95B9F7EA2FA02D089547
:1013660039D0F0DF0EF4E19508953F934F935F93E4
:10137600002411244427552730E2AA0FBB1F881FDB
:10138600991F001C111C441F551F0E1A1F0A460BDD
:10139600570B28F40E0E1F1E461F571F01C0A160D3
:1013A6003A9559F7FD01BC01D001CA015F914F91F1
:1013B6003F910895E894A7FF02C0A1956894E7FDC0
:1013C600E195C0DFEA2F0EF4E1950895CEDFFD0129
:1013D600BC010895E894E7FF02C0E1956894A7FF71
:1013E60004C0A19500F8039400FA0895ED91FC91CC
:1013F60011970895ED91FD916D917C911397089544
:10140600E881F9816A817B810895A881B9818A8101
:101416009B810895E883F9836A837B8308957A9391
:101426006A93FA93EA9308959A938A93BA93AA933E
:101436000895182E862F612D192E972F712D1B2E8C
:10144600BF2FF12D1A2EAE2FE12D08953097604053
:10145600704008955A934A933A932A931A930A939B
:1014660008955D814C813B812A8119810881089507
:00000001FF
