:020000000C945E
:1000020030000C944E000C9400000C94BF000C9431
:1000120000000C9400000C9400000C9400000C945E
:1000220000000C94A0000C9400000C9400000C94AE
:1000320000000C9400000C9400000C9400000C943E
:1000420000000C9400000C9400000C9400000C942E
:1000520000003F065B4F666D7D077F6F4000F8949E
:10006200EE27ECBBF1E0FBBFEBBFE5BFF8E1F1BD72
:10007200E1BD8DE0A2E0BB27ED938A95E9F780E030
:1000820094E0A0E6ED930197E9F7EFE5EDBFE4E038
:10009200EEBFC0E6D1E00C94E3000A921A92FA9203
:1000A2006A937A938A939A93AA93BA93EA93FA9366
:1000B200EFB7EA93E5B7E23029F4E2E0E3BFE3E029
:1000C200E5BF2FC02297E0E0E983E3BFE2B7EBBBD5
:1000D200E2B7E883E0E0E2BFE2E0E5BFA881A43650
:1000E20038F0E881E456E883E981EF5FE983F6CFEF
:1000F200A9818CD0E983A88189D0E883E981E2953E
:10010200EF70E0936001E981EF70E0936101E881B3
:10011200E295EF70E0936201E881EF70E093630192
:100122002296E991EFBFF991E991B991A99199913B
:10013200899179916991F990199009901895AA93EA
:10014200EA93FA93EFB7EA931A93EFEFEBBB10E05F
:10015200143040F4E12FF0E0E05AFE4FAAE0A08311
:100162001F5FF6CFE0E0E3BFE2BFE2E0E5BF199137
:10017200E991EFBFF991E991A99118950A92AA9391
:10018200EA93FA93EFB7EA93EFEFE8BBE52DA8E025
:100192000E941101E095E8BBE52DF0E0E05AFE4F28
:1001A200E081F0E0EC5AFF4F049005BA5394E3E08B
:1001B200E51508F45524E991EFBFF991E991A99168
:1001C20009901895E0E0EBBBEFEFEABBE8BBEFE08C
:1001D200E7BBE0E0E5BBEFEFE4BBE0E0E3BFE2BF9B
:1001E200ECBFE2BDEEE0E5BDE0E0E4BDEDE4E3BD81
:1001F200EBB7E064EBBFE2E0E5BFE0E0E4BFE0E4E0
:10020200EABFE1E8E9BF7894FFCFFFCFAA93A991B3
:10021200EE27AA5012F0E05FFCCFA65FEA0F089526
:10022200EE230E2EEA2F19F0E6950A94E9F70895C7
:00000001FF
