:0E0000000C944F000C9400000C9400000C9423
:10000E0000000C9400000C9400000C9400000C9462
:10001E0000000C9400000C9400000C9400000C9452
:10002E0000000C9400000C9400000C9400000C9442
:10003E0000000C9400000C9400000C9400000C9432
:10004E0000000C940000040200000000000020409C
:10005E000000010000000010000080000000000100
:10006E0000000800000000800000000002040000F4
:10007E000000000040000A00600154000B006D01FA
:10008E005E000C007A016A000D0087017600000008
:10009E00F894EE27ECBBF1E0FBBFEBBFE5BFF8E158
:1000AE00F1BDE1BD8DE0A2E0BB27ED938A95E9F7A6
:1000BE0080E094E0A0E6ED930197E9F7E4E8F0E044
:1000CE0085919591009761F0A591B5910590159048
:1000DE00BF01F00105900D920197E1F7FB01F0CF02
:1000EE00EFE5EDBFE4E0EEBFC0E6D1E00C947F009B
:1000FE00EFEFEABBE7BBE4BBE1BB10E01D30F0F471
:10010E00EBB323D0E05AFE4FE081EA2BEBBBE8B312
:10011E001CD0E359FE4FE081EA2BE8BBE5B315D0C6
:10012E00E658FE4FE081EA2BE5BBE2B30ED0E9576D
:10013E00FE4FE081EA2B0DD01F5FE0CFE0E0EBBB7E
:10014E00E8BBE5BB06D0D9CFFFCFAE2FE12FF0E055
:10015E000895E2BBAAEFB0E00C94B500109639F00A
:10016E0080ED97E00197F1F7A8951197C9F70895DB
:00000001FF
