:0A0000000C9430000C9400000C94E6
:10000A0000000C9460000C9400000C9400000C9406
:10001A0000000C9400000C9400000C9400000C9456
:10002A0000000C9400000C9400000C9400000C9446
:10003A0000000C9400000C9400000C9400000C9436
:10004A0000000C9400000C94000000000000040062
:10005A00040054000000F894EE27ECBBF1E0FBBF6B
:10006A00EBBFE5BFF8E1F1BDE1BD8DE0A2E0BB2742
:10007A00ED938A95E9F780E094E0A0E6ED93019785
:10008A00E9F7E8E5F0E085919591009761F0A5918F
:10009A00B59105901590BF01F00105900D92019759
:1000AA00E1F7FB01F0CFEFE5EDBFE4E0EEBFC0E61C
:1000BA00D1E00C947800EA93EFB7EA935394ECE317
:1000CA00E51551F443945524E41531F4739444240A
:1000DA00E8E1E71509F477245BBA48BA75BAE991F9
:1000EA00EFBFE9911895E0E0EBBBEFE3EABBE0E094
:1000FA00E8BBEFE3E7BBE0E0E5BBEFE3E4BBE0E04E
:10010A00E2BBE0E8E1BBE0E0E2BDEFE1E5BDE0E053
:10011A00E4BDEFEFE3BDE0E8E9BF7894FFCFFFCF9E
:00000001FF
