:060000000C9430000C948A
:1000060000000C9400000C9460000C9400000C940A
:1000160000000C9400000C9400000C9400000C945A
:1000260000000C9400000C9400000C9400000C944A
:1000360000000C9400000C9400000C9400000C943A
:1000460000000C9400000C9400000C9400000000CA
:1000560000000400040054000000F894EE27ECBBF6
:10006600F1E0FBBFEBBFE5BFF8E1F1BDE1BD8DE01F
:10007600A2E0BB27ED938A95E9F780E094E0A0E63D
:10008600ED930197E9F7E8E5F0E085919591009702
:1000960061F0A591B59105901590BF01F00105900D
:1000A6000D920197E1F7FB01F0CFEFE5EDBFE4E03C
:1000B600EEBFC0E6D1E00C947E00EA93EFB7EA9378
:1000C6005394ECE3E51579F443945524E41559F477
:1000D60073944424E8E1E71531F463947724E0E26D
:1000E600E61509F466245BBA48BA75BA62BAE991AC
:1000F600EFBFE9911895E0E0EBBBEFE3EABBE0E088
:10010600E8BBEFE3E7BBE0E0E5BBEFE1E4BBE0E043
:10011600E2BBEFE9E1BBE8E0E2BDEEE1E5BDE0E030
:10012600E4BDEFE7E3BDE0E8E9BF7894FFCFFFCF9A
:00000001FF
